:020000040800F2
:100000000040002061090108556F00085F6F00087B
:1000100000000000000000000000000000000000E0
:10002000000000000000000000000000656F0008F4
:1000300000000000000000006F6F0008796F0008EA
:10004000B109010800000000B1090108B109010867
:10005000B1090108B1090108B1090108B109010894
:1000600000000000B1090108B1090108B109010847
:10007000B1090108B1090108B10901080000000037
:10008000B1090108896F000839700008B109010839
:10009000B1090108B1090108B1090108B109010854
:1000A000B1090108B1090108B1090108817000080E
:1000B00031710008E171000800000000B109010879
:1000C00010B5064C2378002B07D1054B002B02D02E
:1000D000044800E000BF0123237010BD6001002030
:1000E00000000000D80A0108044B10B5002B03D013
:1000F0000349044800E000BF10BDC04600000000F6
:1001000064010020D80A01080023C25C0133002AE0
:10011000FBD1581E70470000002243088B4274D365
:1001200003098B425FD3030A8B4244D3030B8B42F8
:1001300028D3030C8B420DD3FF22090212BA030C01
:100140008B4202D31212090265D0030B8B4219D3E2
:1001500000E0090AC30B8B4201D3CB03C01A524102
:10016000830B8B4201D38B03C01A5241430B8B424A
:1001700001D34B03C01A5241030B8B4201D30B0333
:10018000C01A5241C30A8B4201D3CB02C01A52415A
:10019000830A8B4201D38B02C01A5241430A8B421D
:1001A00001D34B02C01A5241030A8B4201D30B0206
:1001B000C01A5241CDD2C3098B4201D3CB01C01A20
:1001C000524183098B4201D38B01C01A524143092A
:1001D0008B4201D34B01C01A524103098B4201D318
:1001E0000B01C01A5241C3088B4201D3CB00C01A85
:1001F000524183088B4201D38B00C01A52414308FD
:100200008B4201D34B00C01A5241411A00D2014621
:10021000524110467047FFE701B5002000F0F0F8AA
:1002200002BDC0460029F7D076E7704703460B436E
:100230007FD4002243088B4274D303098B425FD3DF
:10024000030A8B4244D3030B8B4228D3030C8B420B
:100250000DD3FF22090212BA030C8B4202D31212F1
:10026000090265D0030B8B4219D300E0090AC30BC6
:100270008B4201D3CB03C01A5241830B8B4201D373
:100280008B03C01A5241430B8B4201D34B03C01A5C
:100290005241030B8B4201D30B03C01A5241C30AD4
:1002A0008B4201D3CB02C01A5241830A8B4201D345
:1002B0008B02C01A5241430A8B4201D34B02C01A2F
:1002C0005241030A8B4201D30B02C01A5241CDD2D4
:1002D000C3098B4201D3CB01C01A524183098B421F
:1002E00001D38B01C01A524143098B4201D34B0108
:1002F000C01A524103098B4201D30B01C01A52416B
:10030000C3088B4201D3CB00C01A524183088B42F1
:1003100001D38B00C01A524143088B4201D34B00DA
:10032000C01A5241411A00D201465241104670474C
:100330005DE0CA0F00D04942031000D34042534051
:1003400000229C4603098B422DD3030A8B4212D311
:10035000FC22890112BA030A8B420CD38901921143
:100360008B4208D3890192118B4204D389013AD080
:10037000921100E08909C3098B4201D3CB01C01A55
:10038000524183098B4201D38B01C01A5241430968
:100390008B4201D34B01C01A524103098B4201D356
:1003A0000B01C01A5241C3088B4201D3CB00C01AC3
:1003B000524183088B4201D38B00C01A5241D9D2DB
:1003C00043088B4201D34B00C01A5241411A00D25C
:1003D0000146634652415B10104601D34042002B58
:1003E00000D54942704763465B1000D3404201B5D7
:1003F000002000F005F802BD0029F8D016E770478C
:100400007047C04670B500220C4B04000D0001F08F
:1004100077F9002804D12000290001F0CDF870BD43
:10042000064B00222000290000F07EFD01F0C4F8F8
:1004300080231B069C466044F1E7C0460000E04173
:10044000F0B55746DE464E464546E0B583460700C2
:100450000E03480085B092461C00360B400DCD0FB0
:10046000002800D19DE0954B984239D08023F600BA
:100470001B041E43924A7B0F334399469446030064
:100480006344009300230026FF00029323031B0B09
:1004900098466300E40F52465B0D019400D1B3E02F
:1004A00086498B4200D19EE04246D1008022120450
:1004B0000A435146490F11438B46814952468C46A7
:1004C00000996344CB1A0021D20000932B006340B3
:1004D0009A460F2E00D905E17A4BB6009B599F46EC
:1004E0005B463343994600D0B8E002230826002734
:1004F00000900293CAE7CB463A0002990195019B0E
:100500009A46022927D0032900D180E2012944D04C
:100510006D49009B8C4663441C00002C38DD53075A
:1005200000D013E2D2085B46DB0109D55946674B80
:1005300019408B468021C9008C46009B63441C00F7
:10054000634B9C4207DC5B4664055F075B02174315
:100550001B0B620D02E000230027584A00211B03F9
:100560001C0B0B0D1B05234314055A4A380013407E
:100570001C4353466400DB0764081C43210005B09C
:100580003CBC90469946A246AB46F0BD0122524281
:1005900001231B1B382B00DCADE1002200230027C8
:1005A000DCE75B46334399465ED0002E00D18AE1FA
:1005B000300001F0AFF803000B3B1C2B00DD7BE1AA
:1005C0001D22D31A5A460100DA4008398E40130022
:1005D0005F46334399468F403F4B00261B1A0093DA
:1005E0000023029352E7414653460B433B499B4647
:1005F0008C46009B634400935B46002B3BD1022357
:1006000000221E43022161E7434613439B4637D035
:100610004346002B00D162E1404601F07BF8030025
:100620000B3B1C2B00DD53E102004146083A914090
:1006300088461D21CB1A5146D9400B0041460B4339
:100640009B46534693401A00009B25499C466044B4
:1006500003008C4663440093002137E70323B1462F
:1006600000900C26029311E7002300930133042627
:10067000002702930AE70323C3461E43032125E70D
:1006800001331E430022012120E700239A468023E4
:1006900000271B03094A61E7802349461B031942CF
:1006A00000D1E2E05946194200D0DEE00B431B03C3
:1006B00017001B0BA246014A50E7C046FF07000087
:1006C00001FCFFFF340D0108FF030000FFFFFFFEE8
:1006D000FE070000FFFF0F800DFCFFFF01F8FFFF8A
:1006E000F3030000D94500D9CBE000D1C6E03C00BF
:1006F00048460027009B013B00935B46160E1B02F9
:100700001E431302984633041B0C9946310C019189
:10071000FFF788FD4A4642430B04210C05001943AC
:100720008A4207D98919013D8E4203D88A4201D9EC
:10073000851E8919881A0199FFF774FD09048C46F2
:100740004A46210464464243090C030021438A427D
:1007500004D98919013B8E4200D8F1E02D041D43D4
:10076000AB464346891A4246280C12041D0C5B46D0
:10077000140C22001B041B0C5A4303946B43444388
:10078000029568431B19150CEB189C4203D9802471
:100790006402A44660441C0C15041B042D0C201894
:1007A0005D19814277D373D00C1AA24A7D1BAF42E8
:1007B000BF419446009B7F426344E01B1C0086427D
:1007C00000D1DBE00199FFF72DFD4A4642430B04BF
:1007D000290C070019438A4207D98919013F8E4223
:1007E00003D88A4201D9871E8919881A0199FFF70F
:1007F00019FD09044A46894629044D464243090C1D
:10080000030029438A4207D98919013B8E4203D844
:100810008A4201D9831E89193F04891A3A00039F2D
:100820001A43380013041B0C584381460298150CD8
:100830006F43434345434846000C8446DB196344F9
:100840009F4203D9802040028446654448461F0CDD
:1008500000041B04000C7D191818A94200D284E082
:1008600000D17FE001231A4357E680234A461B0349
:1008700013431B031B0BAA466F4A6FE6BA4200D90B
:1008800035E74B46DC0758087B081C43FF0734E775
:100890000024AF4289D247444745A4415B466442A5
:1008A000A4196418013BA6421ED2A0426DD800D103
:1008B000B6E0241A9B4678E703005A46283B9A4044
:1008C0000027914688E6584600F024FF203072E663
:1008D00003005246283B9A4093460022B4E6504615
:1008E00000F018FF20309AE6A642E2D1B845DCD9E4
:1008F000341A9B4659E71F2B65DC504C0099A446DF
:100900005C46614408008C4011008240D940501E72
:1009100082410C4314435A46DA401300620709D05F
:100920000F222240042A05D02200141D944289413E
:1009300049425B181A0262D50122002300270DE606
:100940008A4200D80AE7831E891907E70F2313405C
:10095000042B00D1E6E5171D9742924153429B4478
:10096000FA08E0E5002800D1D7E57118531EB1421E
:1009700027D3A94215D358D01A0073E7002B00DC07
:1009800004E6012300229B44CDE50223474447456A
:1009900089415B429C46494289190C19E344241A57
:1009A00003E743465F0047459B41B8465B429E19BB
:1009B000023A8919A94200D054E7404500D051E7D6
:1009C000ABE51A00F6E71F215F4649420C1BE740E2
:1009D000202B07D01A49009B8C46634418005B46C5
:1009E00083401A43501E82413A4307270023174091
:1009F00009D00F21002311401400042995D12200B1
:100A00005F075B021B0BD20817430022A6E5802379
:100A100059461B030B431B0317001B0B064A9DE59E
:100A2000BD42B2D89B460024BFE68045B9D31A0028
:100A3000C3E7C046FF030000FF0700001E040000DC
:100A40003E040000F0B55746DE464E464546E0B54A
:100A5000834606000F03480087B092461D003F0BF7
:100A6000400DCC0F002800D16FE0DE4B984238D00B
:100A70008023FF001B041F43730F3B430193DA4B9A
:100A80000027994600239B46F60081442B0369000A
:100A90001B0B52469846490DED0F002900D185E009
:100AA000D04B994200D173E04346DA0080231B0407
:100AB00013435246CC48520F8446134352460020FB
:100AC0006144D20089442100694000918C46012193
:100AD00049448A460F2F00D990E0C449BF00CF593E
:100AE000BF465B463B43019300D06AE102230827DF
:100AF000002681469B46C9E732005846019B614665
:100B00000091022800D175E0032800D1FEE1012800
:100B100000D02CE100230027002600253F032A0DEA
:100B20003F0BB34812053A4302401B051343009A9A
:100B30005B00D1075B080B433000190007B03CBCD9
:100B400090469946A246AB46F0BD5B463B430193B7
:100B500000D12FE1002F00D1A5E1380000F0DAFD2F
:100B600003000B3B1C2B00DD96E11D22D31A5A46D5
:100B70000100DA405E4608398F4013008E403B4347
:100B800001939C4B00271B1A994600239B467DE747
:100B9000414653460B4393498C46E144002B00D019
:100BA0001AE102220220174300228CE7134300D1EE
:100BB0000DE14346002B00D181E1404600F0AAFD43
:100BC00002000B3A1C2A00DD72E10100434608399D
:100BD0008B4098461D239A1A5346D3401A00434629
:100BE000134352468A404946081A8249894681443D
:100BF000002068E77B4B002700268EE7140C1204C8
:100C0000120C1100370C3604350C794328008C4641
:100C10002E0060436044834656432100300C8046DA
:100C20005846794340440291844506D9884680213C
:100C300049028C46E044414602913604010C360CD0
:100C400000048B4681191E0C1B041B0C0391190018
:100C500079438C46280075436544A8465843050CE3
:100C600045447743A94203D9802149028C46674411
:100C7000290C8C4639000004000C2D042D18614409
:100C8000AB4405915946049101990F043F0C080C9F
:100C9000390051434243904602008C46090C8B4672
:100CA00062437C4344445C44A04503D9802149020B
:100CB00088464244210C884661460904090C8C464A
:100CC00039005943434370437E430F0CF618240404
:100CD000BE19644442448C46B34203D980235B026C
:100CE00098464044029B61469846049B370443441F
:100CF0009B46AB45AD416B420D0405992D0C8C46CE
:100D00007F196744FD18A8465D462D19A542A441E8
:100D100093466442A446C344DC448F42BF41984595
:100D20009B4193459241A445A4415B427F421F43AE
:100D3000360C52426442BF192243BF18624638182B
:100D40004302D20D039913436A020A43501E8241A3
:100D50006146ED0D2A434E023243D90100D4B3E07F
:100D60000126500832400243DE0732435B08224C22
:100D70005444002C62DD510709D00F201040042894
:100D800005D0101D9042924152429B180200D90199
:100D900004D580241948E400034054441848844290
:100DA00000DD27E75E075B02D2081F0B63051643D1
:100DB0005B0DB2E6002399460133042700269B46CB
:100DC00064E60323019781460C279B465EE60122D9
:100DD00001201743002276E6032303201F434346E6
:100DE00071E6C046FF07000001FCFFFF740D01081B
:100DF000FFFF0F800DFCFFFFFF030000FFFFFFFE62
:100E0000FE0700000023802700933F030026434B8A
:100E100083E6019B3200A446584670E6AC466EE677
:100E2000802701993F0339422DD03B422BD11F43EC
:100E30003F033F0B00951600384B6EE601252D1B36
:100E4000382D00DD66E61F2D40DC35481C0050447F
:100E5000160082408440EE40501E824134431443C9
:100E6000EB40620709D00F222240042A05D022005D
:100E7000141D9442804140421B181A023ED50123A2
:100E80000027002649E68027019B3F031F433F03BD
:100E90003F0B0094214B40E603005A46283B9A4002
:100EA000002601926DE6584600F034FC203057E6EB
:100EB00003005246283B9A401300002293E6504616
:100EC00000F028FC20307BE6CA4650E71F201E00B9
:100ED0004042041BE640202D03D0124C5444A34052
:100EE0001A43501E8241324307260027164009D07C
:100EF0000F200023104014000428B9D122005E07FF
:100F00005B021F0BD2081643002306E680273F032F
:100F10001F433F033F0B1600004BFEE5FF07000099
:100F20001E0400003E040000F8B557464E464546F4
:100F3000DE460C000903E0B5490A460F5F00314365
:100F40001E03DB0F760A9B46530F3343C84E6500E2
:100F5000C000E40FD2006D0DA24681467F0D9C4675
:100F60009046B74200D1B9E05B46012673409B46EC
:100F7000EE1BA34500D183E0002E63DD002F00D0DF
:100F8000B1E06346134300D123E1731E002B00D070
:100F9000BAE1861A6346B04280410125C91A40422F
:100FA000091A0B0200D447E149024B0A984643460E
:100FB000002B00D189E1404600F0ACFB0300083B68
:100FC0001F2B00DD7CE120223000D21A4146D040A8
:100FD000994002009E400A439D4200DD6AE15D1B8C
:100FE0006B1C1F2B00DD94E1202110003500C91A75
:100FF0008E40DA408840DD40711E8E41110007228C
:101000002843002506433240002A09D00F233340ED
:10101000042B05D0331DB342B641764289191E0018
:101020000B0200D43DE26A1C914B55056D0D9A42AE
:1010300000D119E18F4AF6080A4057075202374398
:10104000120B9BE0002E00D0C5E06E1C7605760DDD
:10105000012E00DC48E16746861ACB1BB042BF4137
:101060007F42B8461F004346FF1A3B00B8461B02AA
:1010700000D55FE137439AD100220024002579E0B2
:10108000002E00DCFAE0002F00D18DE0784B9D426D
:1010900067D0802367461B041F43BC46382E00DC04
:1010A00052E1634613435A1E93411E188642804103
:1010B000404209180B0200D4BEE06D4B01359D4241
:1010C00000D1D2E06B4A73080A4001210E401E4352
:1010D0005108D30707221E43324095E71E001643EE
:1010E00000D045E740E7624B9D423AD080236746F7
:1010F0001B041F43BC46382E00DDEBE01F2E00DC36
:101100003AE133006746203BDF403B00202E05D00C
:101110004027BF1B6646BE40324390464646721E7D
:1011200096413343DAE0002B00D114E263461343C7
:1011300000D168E180234E07C008C9081B0306439D
:10114000194208D06046C008184204D16346010025
:10115000D2085E071643F3009946C900720F444D4A
:1011600011434B46DE08424B4F073743CA089D42A6
:1011700000D16EE012036D05120B6D0D00211203FC
:10118000130B0A0D12051A433B4B2D0513402B433D
:101190005B00E4075B082343380019003CBC904621
:1011A0009946A246AB46F8BD6346134311D0731E61
:1011B000002B00D007E186188642804161444042FE
:1011C000091801250B0237D502257BE73E00614651
:1011D00091463500C5E75C46002D00D0E1E00B00EC
:1011E0000343F3D0731C00D1ACE1214B9F4200D1EB
:1011F0003AE1F343382B00DD6FE11F2B00DD8CE17A
:1012000020250E00ED1AAE40B0460600AA46DE408C
:10121000454635432E005546D940A8406346451EF5
:10122000A8415B1A9C463043161AB242924163466B
:101230005242991A3D00B4E607223240002A00D0FB
:10124000E4E60B4BF6084F073743CA089D4200D02F
:1012500090E73B00134300D1A6E180231B031A4310
:101260001203120B024D89E715000022002785E7C3
:10127000FF070000FFFF7FFFFFFF0F80002E00D061
:10128000C7E06B1C5E05760D012E00DCF0E0C84D5A
:10129000AB4200D1B9E085180A0085428941624419
:1012A000494251180722CE076D082E4349083240A3
:1012B0001D00A9E6BF49ED1A114007223240A3E6FE
:1012C000320028388240002686E6300000F022FAFC
:1012D000203073E6634613435A1E9341C61AB04248
:1012E00080414042091A5CE60E00674606431743F8
:1012F000002D5ED1002E00D0F3E0002F00D11EE1C2
:101300005C46614691462CE7A94FBE427BD01E0049
:10131000F1E610001F3DE840202B03D04021CB1AFE
:101320009A401643731E9E41072206433240002115
:10133000002583E7161A6346B2428041591A40429B
:101340000B1A98465C4632E61F2E00DDABE02027E4
:10135000BB1B9A4663465746BB40994613004F460F
:10136000F3401F433B005746BA40571EBA41134350
:101370006246F240891898E62027BB1B9A466346CE
:101380005746BB40994613004F46F3401F433B006E
:101390005746BA40571EBA4113436246F240891A73
:1013A0009CE7834B9F425FD080252D0473422943E5
:1013B00020E7002E0CD1002F00D1D0E05C46614622
:1013C00091467B4DCDE67A4FBE421CD01E0065E6AD
:1013D000002F18D0C0084E0706438020C90800031C
:1013E000014208D06346DC08044204D12100DA46F9
:1013F000D2085E071643F300994601245346C900FC
:10140000720F11431C406A4DABE61D0000220027FD
:10141000B4E6002D59D10B00034300D1D6E6731C6E
:1014200000D1B2E0624B9F421ED0F343382B6FDCF9
:101430001F2B00DD97E020250E00ED1AAE40B046D0
:101440000600AA46DE40454635432E005546A840D4
:10145000D940451EA8418C440643B6189642924195
:10146000514261443D0025E63D006146914678E6E3
:101470000B000343002D00D055E6002BF5D063464A
:10148000134300D16DE68618864280416144404294
:10149000091800220B0200D4D0E6464B0135194052
:1014A000B2E5B1465DE633006746203BDF403B00D6
:1014B000202E05D04027BF1B6646BE4032439046D3
:1014C0004646721E96413343EFE5394B9F42CBD0DF
:1014D00080252D0473422943A8E70843411E884113
:1014E000A2E6002F00D13CE66346861ACF1AB0422E
:1014F0009B415B42FB1A98461B024ED5161A634667
:10150000B2429241591A5242891A5C4600227BE546
:1015100001430E00711E8E419FE71D000E00203D0D
:10152000EE40B046202B04D04025EB1A99400843EA
:10153000814648464346411E8841184374E60022CE
:10154000002417E6161A6346B2429241591A5242D3
:10155000891A3D0025E561469146154D01E6802238
:101560000024120379E61D000E00203DEE40B04637
:10157000202B04D04025EB1A9940084381464E4663
:101580004346711E8E411E4367E7861896429B4173
:1015900061445B42C9183D008CE547463743CED0D5
:1015A00007224146324049E600273A00E6E5C046B8
:1015B000FF070000FFFF7FFF30B5144D0A034B000B
:1015C000120B5B0DC90F0024AB4211DD104CA3427E
:1015D00010DC8024640322430E4CE41A1F2C0CDD23
:1015E0000D48C31ADA4013005C42002900D11C00E8
:1015F000200030BD094BCC18FAE7094DE040AC465D
:1016000063449A4013000343EEE7C046FE03000024
:101610001D0400003304000013040000FFFFFF7FDF
:10162000EDFBFFFF70B500282DD0C317C5185D4036
:10163000C40F280000F06EF8154B1B1A5B055B0DFC
:101640000A2815DD0B38854000222D032D0B0021C3
:1016500010002D030A0D2D0B12052A430D4D1B05FD
:101660002A4013435B00E4075B082343190070BD65
:1016700002002900153291400A000B21081AC540CA
:101680002D032D0BE3E70024002300250022DEE7D5
:101690001E040000FFFF0F808446101C62468C462B
:1016A000191C634600E0C0461FB500F0F1F80028A1
:1016B00001D40021C8421FBD10B500F049F84042D6
:1016C000013010BD10B500F0E3F8002801DB002068
:1016D00010BD012010BDC04610B500F0D9F800289B
:1016E00001DD002010BD012010BDC04610B500F086
:1016F0006BF8002801DC002010BD012010BDC046A1
:1017000010B500F061F8002801DA002010BD0120BA
:1017100010BDC0461C2101231B04984201D3000CBC
:1017200010391B0A984201D3000A08391B09984254
:1017300001D30009043902A2105C40187047C0466A
:10174000040302020101010100000000000000008A
:10175000F0B54F464646D6468446C0B58046194E3B
:1017600018030F034D00000B5C0082463F0B6D0D0C
:10177000C90F9146640DDB0F0120B5420AD0B44277
:1017800003D0A54201D157450CD01CBC90469946C8
:10179000A246F0BD66463E43F7D1AC42F5D1544671
:1017A0001443F2D10120C845EFD1994207D0002D52
:1017B000EBD163461F433800471EB841E5E70020E0
:1017C000E3E7C046FF070000F0B54F464646D64661
:1017D0004D00C0B50E03C90F8A462C491F035C009B
:1017E0008046360B6D0D91463F0B640DDB0F8D422D
:1017F0001ED08C4216D0002D1ED130438446002CC2
:1018000001D13A4323D06246002A1AD09A4529D002
:10181000514602200139084001381CBC90469946C7
:10182000A246F0BD39001143E5D002204042F4E762
:101830003043FAD1AC420FD0002C0FD13A43E7D05D
:101840000CE00122013B934318000130E5E76346B9
:101850000020002BE1D0DBE73A43E6D19A45D7D10F
:10186000A542D5DCA54205DBBE42D1D808D0002078
:10187000BE42D2D250460123013898430130CCE712
:10188000C845C5D80020C845F4D3C6E7FF07000007
:10189000F0B54F464646D6464D00C0B50E03C90FBB
:1018A0008A462E491F035C008046360B6D0D91461B
:1018B0003F0B640DDB0F8D4218D08C4211D0002DF0
:1018C00018D130438446002C1ED13A431CD16346C4
:1018D0000020002B30D05146022001390840013849
:1018E0002AE039001143EAD0022025E03043FBD141
:1018F000AC4226D0002C26D13A4324D151460220B6
:1019000001390840013817E06246002A0FD09A4595
:10191000E1D1A54205DBBE42DDD819D00020BE4290
:101920000AD25046012301389843013004E00122D5
:10193000013B9343180001301CBC90469946A246D7
:10194000F0BD3A43D0D19A45C5D1A542C3DCE0E70A
:10195000C845C0D80020C845E3D3EDE7FF07000025
:1019600080B500AF074B1A68064B10210A431A6076
:10197000002000F009F805F0BFF800231800BD466C
:1019800080BDC0460020024090B583B000AF7860B3
:10199000144B1C68144B1B781900FA239800FEF7AF
:1019A000BBFB030019002000FEF7B6FB0300180084
:1019B00000F0A7FB031E01D001230FE07B68032B7F
:1019C0000BD8796801235B420022180000F060FB0D
:1019D000064B7A681A60002300E001231800BD4618
:1019E00003B090BD5801002004000020000000203A
:1019F00080B500AF054B1B781A00054B1B68D21849
:101A0000034B1A60C046BD4680BDC046040000209E
:101A10008801002080B500AF024B1B681800BD464E
:101A200080BDC0468801002080B584B000AF7860DA
:101A3000FFF7F0FF0300BB607B68FB60FB680133CE
:101A400005D0094B1B781A00FB689B18FB60C04649
:101A5000FFF7E0FF0200BB68D31AFA689A42F7D892
:101A6000C046BD4604B080BD0400002080B584B0EF
:101A700000AF78600F23FB1800221A700023BB60B0
:101A80007B68002B01D1012325E17B689B6B002B38
:101A90000AD17B680022DA637B68342200219954E2
:101AA0007B68180005F04CF87B689B6B1022134094
:101AB00000D003E10F23FB181B78002B00D0FDE0C2
:101AC0007B681B689B680422134000D0F6E07B68AB
:101AD0009B6B834A134002221A437B689A637B689C
:101AE0001B689B6803221340012B12D17B681B6883
:101AF0001B6801221340012B09D07B681B68DA6840
:101B000080231B021A4080231B029A4201D1012329
:101B100000E00023002B16D17B681B68DB681822CD
:101B2000934319007B689A687B681B680A43DA60F4
:101B30007B681B681B699B0099087B685A687B68F7
:101B40001B680A431A617B681B68DA687B681B683C
:101B500064490A40DA607B681B7E9A037B685B7E7F
:101B6000DB031A437B689B7E5B031A437B689B6A9B
:101B7000012B02D080235B0100E000231A437B6825
:101B8000DB681A437B681B69022B01D1042300E048
:101B900000231A437B6824215B5C5B001343BA6813
:101BA0001343BB607B68DB7E012B15D17B689B7E7A
:101BB000002B05D1BB68802252021343BB600BE0AF
:101BC0007B689B6B20221A437B689A637B68DB6B84
:101BD00001221A437B68DA637B68DA69C223FF3328
:101BE0009A4207D07B68DA697B681B6A1343BA683C
:101BF0001343BB607B681B68D9687B681B68BA6845
:101C00000A43DA607B68DA6A80235B059A421BD05C
:101C10007B68DB6A012B17D07B68DB6A022B13D051
:101C20007B68DB6A032B0FD07B68DB6A042B0BD04D
:101C30007B68DB6A052B07D07B68DB6A062B03D049
:101C40007B68DB6A072B12D17B681B685A697B684B
:101C50001B6807218A435A617B681B6859697B6846
:101C6000DB6A07221A407B681B680A435A617B685B
:101C70001B68DB681C4A1340BA689A420BD17B6828
:101C80000022DA637B689B6B0322934301221A4391
:101C90007B689A631CE07B689B6B12229343102243
:101CA0001A437B689A637B68DB6B01221A437B686B
:101CB000DA630F23FB1801221A7009E07B689B6B23
:101CC00010221A437B689A630F23FB1801221A70B3
:101CD0000F23FB181B781800BD4604B080BDC0461A
:101CE000FDFEFFFF1902FEFFE7FF3F8380B584B0D2
:101CF00000AF786039600F23FB1800221A700023B0
:101D0000BB607B68DA6A80235B059A4211D07B68EE
:101D1000DB6A012B0DD07B68DB6A022B09D07B6864
:101D2000DB6A032B05D07B68DB6A042B01D07B6860
:101D3000DB6A7B6834229B5C012B01D10223BBE070
:101D40007B683422012199547B681B689B680422BC
:101D5000134000D09FE03B685B68594A934200D132
:101D600077E07B681B68996A3B681B6801229A4090
:101D70007B681B680A439A627B68DA6A80235B058A
:101D80009A4237D07B68DB6A012B33D07B68DB6AF1
:101D9000022B2FD07B68DB6A032B2BD07B68DB6A9E
:101DA000042B27D07B68DB6A052B23D07B68DB6A9A
:101DB000062B1FD07B68DB6A072B1BD03B689A6819
:101DC0007B681B685B6907210B409A4212D07B68D5
:101DD0001B685A697B681B6807218A435A617B68C4
:101DE0001B6859693B689B6807221A407B681B681F
:101DF0000A435A613B681B68102B03D03B681B6881
:101E0000112B52D12F4B19683B681B68102B02D144
:101E100080231B0401E08023DB032A4A0B43136069
:101E20003B681B68102B40D1274B1B6827491800C3
:101E3000FEF772F903001A0013009B009B185B0069
:101E4000BB6002E0BB68013BBB60BB68002BF9D103
:101E50002BE07B681B689A6A3B681B6801219940EC
:101E60000B00D9437B681B680A409A623B681B6879
:101E7000102B03D03B681B68112B16D1114B19682E
:101E80003B681B68102B01D1114A00E0114A0D4B31
:101E90000A401A6009E07B689B6B20221A437B682A
:101EA0009A630F23FB1801221A707B6834220021E9
:101EB00099540F23FB181B781800BD4604B080BD51
:101EC00001100000082701405801002040420F0087
:101ED000FFFF7FFFFFFFBFFF80B582B000AF0200B2
:101EE000FB1D1A70FB1D1B787F2B09D8FB1D1B786F
:101EF0001A001F231A40044B012191400A001A6066
:101F0000C046BD4602B080BD00E100E080B582B0B1
:101F100000AF0200FB1D1A70FB1D1B787F2B0ED833
:101F2000FB1D1B781A001F231340074901229A400A
:101F3000130080228B50BFF34F8FBFF36F8FC046CB
:101F4000BD4602B080BDC04600E100E090B583B060
:101F500000AF02003960FB1D1A70FB1D1B787F2B40
:101F600028D82F4AFB1D1B785BB29B08C0339B000F
:101F70009B58FA1D1278110003220A40D200FF215B
:101F800091400A00D2431A4011003B689B01FF2296
:101F90001A40FB1D1B78180003230340DB009A4006
:101FA0001F48FB1D1B785BB29B080A43C0339B0094
:101FB0001A5031E01B4AFB1D1B7819000F230B4000
:101FC000083B9B0806339B00D31804331B68FA1D9B
:101FD0001278110003220A40D200FF2191400A002A
:101FE000D2431A4011003B689B01FF221A40FB1D9F
:101FF0001B78180003230340DB009A400948FB1DAF
:102000001B781C000F232340083B9B080A43063320
:102010009B00C31804331A60C046BD4603B090BD90
:1020200000E100E000ED00E080B500AFBFF34F8FAE
:10203000034B044ADA60BFF34F8FC046FDE7C0464A
:1020400000ED00E00400FA0580B582B000AF7860D2
:102050007B68013B0C4A934201D9012310E00B4BF2
:102060007A68013A5A6001235B4203211800FFF7A6
:102070006DFF064B00229A60044B07221A60002372
:102080001800BD4602B080BDFFFFFF0010E000E079
:1020900080B584B000AFB9607A600F217B18021C54
:1020A0001A70BA687B181B785BB211001800FFF732
:1020B0004DFFC046BD4604B080BD80B582B000AFC4
:1020C0000200FB1D1A70FB1D1B785BB21800FFF7A6
:1020D00003FFC046BD4602B080BD80B582B000AFF0
:1020E0000200FB1D1A70FB1D1B785BB21800FFF786
:1020F0000DFFC046BD4602B080BD80B500AFFFF702
:1021000093FF80B582B000AF78607B681800FFF75E
:102110009BFF03001800BD4602B080BD80B582B0B1
:1021200000AF78607B6821229B5CDBB2022B08D079
:102130007B6804229A637B68202200219954012342
:1021400020E07B681B681A687B681B680E218A4345
:102150001A607B681B681A687B681B6801218A43C8
:102160001A607B681A6C7B68DB6B012191400A0066
:102170005A607B682122012199547B68202200212A
:10218000995400231800BD4602B080BD80B584B0CC
:1021900000AF78600F23FB1800221A707B682122A1
:1021A0009B5CDBB2022B07D07B6804229A630F236F
:1021B000FB1801221A7028E07B681B681A687B688C
:1021C0001B680E218A431A607B681B681A687B684B
:1021D0001B6801218A431A607B681A6C7B68DB6B81
:1021E000012191400A005A607B6821220121995403
:1021F0007B682022002199547B685B6B002B04D004
:102200007B685B6B7A68100098470F23FB181B787C
:102210001800BD4604B080BDF0B587B000AFF860CF
:10222000B9603A607B601723FB1801221A701623ED
:10223000FB1800221A701523FB1800221A703E4B5F
:102240001B7E012B01D1022372E03B4B01221A7647
:102250001723FE18394B180000F0C4F80300337040
:102260001723FB181B78002B5CD1FB68012B04D1D2
:102270001523FB1801221A700BE0FB68022B04D116
:102280001523FB1802221A7003E01523FB18042201
:102290001A701623FB1800221A7039E016217B18D9
:1022A0001B785A00BB68D0187B181B781B011A00DA
:1022B000203A002A03DB7968D1400C0008E0202294
:1022C000D21A796891400A003968D9400C00144349
:1022D0007A68DA401500A3B2190000F067F81723F6
:1022E000FE18164B180000F07DF803003370144BF5
:1022F0001A69134B01218A431A611723FB181B78B3
:10230000002B0ED116217B181A787B1801321A7017
:102310001623FA181523FB1812781B789A42BDD39E
:1023200000E0C046044B00221A761723FB181B78E6
:102330001800BD4607B0F0BD9001002050C300005A
:102340000020024080B582B000AFFB1D00221A7051
:102350000C4B1B69802213400DD00A4B0A4A5A606D
:10236000084B0A4A5A60074B1B698022134002D06F
:10237000FB1D01221A70FB1D1B781800BD4602B020
:1023800080BDC0460020024023016745AB89EFCDE8
:1023900080B500AF044B1A69034B80210A431A61D0
:1023A00000231800BD4680BD0020024080B582B0E9
:1023B00000AF78600A00BB1C1A80084B0022DA616B
:1023C000074B1A69064B01210A431A617B68BA1C44
:1023D00012881A80C046BD4602B080BD9001002020
:1023E0000020024080B584B000AF7860FFF712FB98
:1023F0000300FB600FE07B6801330CD07B68002B8F
:1024000007D0FFF707FB0200FB68D31A7A689A42ED
:1024100001D203231FE0124BDB6801221340012B82
:10242000E9D00F4BDB6820221340202B02D10C4B4C
:102430002022DA600A4BDB6810221340102B05D0F3
:10244000074BDB6804221340042B03D100F00AF889
:10245000012300E000231800BD4604B080BDC04643
:102460000020024080B582B000AF00237B60134B98
:10247000DB6810221340102B09D1114BDB690222BB
:102480001A430F4BDA617B68102213437B600B4BBE
:10249000DB6804221340042B09D1094BDB690122BC
:1024A0001A43074BDA617B68042213437B60034BBA
:1024B0007A68DA60C046BD4602B080BD00200240A6
:1024C00090010020B0B584B000AF786039600F2370
:1024D000FB1801221A700023BB60324B1B7E012BBC
:1024E00001D102235AE02F4B01221A767B681B6828
:1024F000012B16D12C4B1800FFF774FF031E47D198
:1025000000F056F80F23FC18274B1800FFF76AFF5E
:1025100003002370254B1A69244B04218A431A6156
:1025200036E0214B1800FFF75DFF031E30D13B68FA
:10253000012252421A607B685B68BB601FE0BB6887
:10254000180000F04DF80F257C19174B1800FFF705
:1025500049FF03002370154B1A69144B02218A436B
:102560001A617B191B78002B03D03B68BA681A608C
:102570000EE0BB688022120194466344BB607B6816
:102580009B68DA027B685B68D318BA689A42D6D334
:10259000044B00221A760F23FB181B781800BD4647
:1025A00004B0B0BD9001002050C3000000200240E4
:1025B00080B500AF084B0022DA61084B1A69074B5F
:1025C00004210A431A61054B1A69044B40210A434E
:1025D0001A61C046BD4680BD900100200020024027
:1025E00080B582B000AF78600A4B0022DA610A4BF6
:1025F0001A69094B02210A431A61074B7A685A612A
:10260000054B1A69044B40210A431A61C046BD4676
:1026100002B080BD900100200020024080B586B04D
:1026200000AF7860396000237B614FE13B681B6835
:1026300001217A6991400A001340FB60FB68002B7E
:1026400000D140E13B685B6803221340012B05D0B9
:102650003B685B6803221340022B30D17B689B6888
:102660003B617B695B0003229A401300DA433B69BC
:1026700013403B613B68DA687B695B009A4013005A
:102680003A6913433B617B683A699A607B685B688F
:102690003B6101227B699A401300DA433B69134096
:1026A0003B613B685B681B0901221A407B699A40C9
:1026B00013003A6913433B617B683A695A603B688F
:1026C0005B6803221340032B17D07B68DB683B61F8
:1026D0007B695B0003229A401300DA433B69134095
:1026E0003B613B689A687B695B009A4013003A69DA
:1026F00013433B617B683A69DA603B685B6803229D
:102700001340022B23D17B69DA087B6808329200E0
:10271000D3583B617B69072213409B000F229A40EC
:102720001300DA433B6913403B613B681A697B69DC
:1027300007210B409B009A4013003A6913433B6109
:102740007B69DA087B68083292003969D1507B686E
:102750001B683B617B695B0003229A401300DA43EC
:102760003B6913403B613B685B6803221A407B690D
:102770005B009A4013003A6913433B617B683A69F6
:102780001A603B685A68C0239B02134000D19AE04C
:10279000544B9A69534B01210A439A61514B9B69EF
:1027A00001221340BB60BB684F4A7B699B08023320
:1027B0009B009B583B617B69032213409B000F22C7
:1027C0009A401300DA433B6913403B617A689023D7
:1027D000DB059A4213D07B68444A93420DD07B6854
:1027E000434A934207D07B68424A934201D1032374
:1027F00006E0052304E0022302E0012300E00023B9
:102800007A6903210A40920093403A6913433B617D
:1028100035497B699B0802339B003A695A50364B15
:102820001B683B61FB68DA433B6913403B613B68D3
:102830005A6880235B02134003D03A69FB68134354
:102840003B612D4B3A691A602B4B5B683B61FB681F
:10285000DA433B6913403B613B685A6880239B0223
:10286000134003D03A69FB6813433B61224B3A693A
:102870005A60214B9B683B61FB68DA433B6913401C
:102880003B613B685A6880235B03134003D03A697D
:10289000FB6813433B61184B3A699A60164BDB683F
:1028A0003B61FB68DA433B6913403B613B685A6814
:1028B00080239B03134003D03A69FB6813433B61B9
:1028C0000D4B3A69DA607B6901337B613B681A68BA
:1028D0007B69DA40131E00D0A8E6C046BD4606B0AC
:1028E00080BDC046001002400000014000040048C6
:1028F00000080048000C00480004014080B586B084
:1029000000AF7860396000237B61B1E001227B6910
:102910009A403B6813403B613B69002B00D1A4E027
:10292000584A7B699B0802339B009B58FB607B697C
:10293000032213409B000F229A40FB681340FB6068
:102940007A689023DB059A4213D07B684E4A934203
:102950000DD07B684D4A934207D07B684C4A934226
:1029600001D1032306E0052304E0022302E0012352
:1029700000E000237A6903210A4092009340FA683C
:102980009A4232D1434B1A683B69D943414B0A40C2
:102990001A60404B5A683B69D9433E4B0A405A6023
:1029A0003C4B9A683B69D9433A4B0A409A60394B91
:1029B000DA683B69D943374B0A40DA607B69032206
:1029C00013409B000F229A401300FB602D4A7B6945
:1029D0009B0802339B009A58FB68D94329487B69BE
:1029E0009B080A4002339B001A507B681B687A6977
:1029F0005200032191400A00D2431A407B681A60BA
:102A00007B69DA087B6808329200D3587A6907211B
:102A10000A4092000F2191400A00D1437A69D208FE
:102A200019407B6808329200D1507B68DB687A6974
:102A30005200032191400A00D2431A407B68DA60B9
:102A40007B685B6801217A6991400A00D2431A4091
:102A50007B685A607B689B687A69520003219140C9
:102A60000A00D2431A407B689A607B6901337B611C
:102A70003A687B69DA40131E00D047E7C046BD467E
:102A800006B080BD00000140000400480008004876
:102A9000000C00480004014080B584B000AF7860AD
:102AA0000A00BB1C1A807B681B69BA1C1288134081
:102AB00004D00F23FB1801221A7003E00F23FB1828
:102AC00000221A700F23FB181B781800BD4604B0B3
:102AD00080BD80B582B000AF786008001100BB1CDB
:102AE000021C1A807B1C0A1C1A707B1C1B78002B92
:102AF00004D0BB1C1A887B689A6103E0BB1C1A884F
:102B00007B689A62C046BD4602B080BD80B582B087
:102B100000AF78607B68002B01D1012382E07B68E5
:102B200041229B5CDBB2002B07D17B684022002155
:102B300099547B68180004F04BF87B6841222421EB
:102B400099547B681B681A687B681B6801218A435B
:102B50001A607B685A687B681B6834490A401A61AE
:102B60007B681B689A687B681B6831490A409A60D9
:102B70007B68DB68012B08D17B689A687B681B68DF
:102B8000802109020A439A6007E07B689A687B68A3
:102B90001B68842109020A439A607B68DB68022B68
:102BA00004D17B681B68802212015A607B681B6815
:102BB0005A687B681B681F490A435A607B681B6818
:102BC000DA687B681B681A490A40DA607B681A6910
:102BD0007B685B691A4311007B689B691A027B68FA
:102BE0001B680A43DA607B68D9697B681A6A7B686C
:102BF0001B680A431A607B681B681A687B681B683D
:102C000001210A431A607B6800225A647B684122D2
:102C1000202199547B6800221A637B68422200219C
:102C2000995400231800BD4602B080BDFFFFFFF09D
:102C3000FF7FFFFF0080000290B589B002AFF8600F
:102C400008007A6019000A23FB18021C1A80082366
:102C5000FB180A1C1A80FB6841229B5CDBB2202B0C
:102C600000D0E7E0FB6840229B5C012B01D10223EE
:102C7000E1E0FB68402201219954FEF7CBFE0300FE
:102C80007B6180231902F8687B6900931923012274
:102C900000F02CFD031E01D00123CCE0FB68412293
:102CA00021219954FB68422210219954FB6800228B
:102CB0005A64FB687A685A62FB680822BA1812885C
:102CC0005A85FB6800225A63FB685B8D9BB2FF2B21
:102CD00011D9FB68FF221A85FB681B8DDAB28023AD
:102CE0005C040A23FB181988F868554B00932300ED
:102CF00000F09CFE75E0FB685B8D9AB2FB681A855C
:102D0000FB681B8DDAB280239C040A23FB18198808
:102D1000F8684B4B0093230000F088FE61E07A696D
:102D2000B96AFB68180000F020FD031E01D00123E2
:102D300081E0FB685B6A1A78FB681B689A62FB6833
:102D40005B6A5A1CFB685A62FB685B8D9BB2013B55
:102D50009AB2FB685A85FB681B8D013B9AB2FB68EF
:102D60001A85FB685B8D9BB2002B3AD0FB681B8DEC
:102D7000002B36D1BA6AF8687B69009313000022F1
:102D8000802100F0B3FC031E01D0012353E0FB6857
:102D90005B8D9BB2FF2B11D9FB68FF221A85FB6864
:102DA0001B8DDAB280235C040A23FB181988F868AB
:102DB00000230093230000F039FE12E0FB685B8DD6
:102DC0009AB2FB681A85FB681B8DDAB280239C04DB
:102DD0000A23FB181988F86800230093230000F0E9
:102DE00025FEFB685B8D9BB2002B98D17A69B96A8E
:102DF000FB68180000F0F8FC031E01D001231AE064
:102E0000FB681B682022DA61FB681B685A68FB6854
:102E10001B680C490A405A60FB68412220219954E2
:102E2000FB68422200219954FB68402200219954FA
:102E3000002300E002231800BD4607B090BDC04645
:102E40000020008000E800FE90B589B002AFF86075
:102E500008007A6019000A23FB18021C1A80082354
:102E6000FB180A1C1A80FB6841229B5CDBB2202BFA
:102E700000D0E8E0FB6840229B5C012B01D10223DB
:102E8000E2E0FB68402201219954FEF7C3FD0300F4
:102E90007B6180231902F8687B6900931923012262
:102EA00000F024FC031E01D00123CDE0FB68412289
:102EB00022219954FB68422210219954FB68002278
:102EC0005A64FB687A685A62FB680822BA1812884A
:102ED0005A85FB6800225A63FB685B8D9BB2FF2B0F
:102EE00011D9FB68FF221A85FB681B8DDAB280239B
:102EF0005C040A23FB181988F868554B00932300DB
:102F000000F094FD76E0FB685B8D9AB2FB681A8551
:102F1000FB681B8DDAB280239C040A23FB181988F6
:102F2000F8684B4B0093230000F080FD62E07A6963
:102F3000B96AFB68180000F093FC031E01D001235E
:102F400082E0FB681B685A6AFB685B6AD2B21A703F
:102F5000FB685B6A5A1CFB685A62FB681B8D013B6D
:102F60009AB2FB681A85FB685B8D9BB2013B9AB2F3
:102F7000FB685A85FB685B8D9BB2002B3AD0FB68DF
:102F80001B8D002B36D1BA6AF8687B690093130059
:102F90000022802100F0AAFB031E01D0012353E090
:102FA000FB685B8D9BB2FF2B11D9FB68FF221A8552
:102FB000FB681B8DDAB280235C040A23FB18198896
:102FC000F86800230093230000F030FD12E0FB6856
:102FD0005B8D9AB2FB681A85FB681B8DDAB2802381
:102FE0009C040A23FB181988F86800230093230027
:102FF00000F01CFDFB685B8D9BB2002B97D17A69BA
:10300000B96AFB68180000F0EFFB031E01D0012332
:103010001AE0FB681B682022DA61FB681B685A68AB
:10302000FB681B680B490A405A60FB68412220215B
:103030009954FB68422200219954FB6840220021E8
:103040009954002300E002231800BD4607B090BD4C
:103050000024008000E800FE90B589B002AFF8605F
:103060000C00100019000A23FB18221C1A800823E8
:10307000FB18021C1A80BB1D0A1C1A80FB68412227
:103080009B5CDBB2202B00D00CE1BB6A002B04D090
:103090002C23FB181B88002B05D1FB688022920093
:1030A0005A640123FFE0FB6840229B5C012B01D1A5
:1030B0000223F8E0FB68402201219954FEF7AAFCA4
:1030C00003007B6180231902F8687B690093192350
:1030D000012200F00BFB031E01D00123E3E0FB689B
:1030E000412221219954FB68422240219954FB68D6
:1030F00000225A64FB68BA6A5A62FB682C22BA182A
:1031000012885A85FB6800225A63BB1D1C8808235D
:10311000FB181A880A23FB181988F8687B69019341
:103120003B6B0093230000F0F9F9031E05D0FB6808
:103130004022002199540123B5E0FB685B8D9BB2CE
:10314000FF2B11D9FB68FF221A85FB681B8DDAB2B1
:1031500080235C040A23FB181988F8680023009375
:10316000230000F063FC12E0FB685B8D9AB2FB6801
:103170001A85FB681B8DDAB280239C040A23FB1896
:103180001988F86800230093230000F04FFC7A6947
:10319000396BFB68180000F0E8FA031E01D0012328
:1031A00081E0FB685B6A1A78FB681B689A62FB68BF
:1031B0005B6A5A1CFB685A62FB685B8D9BB2013BE1
:1031C0009AB2FB685A85FB681B8D013B9AB2FB687B
:1031D0001A85FB685B8D9BB2002B3AD0FB681B8D78
:1031E000002B36D13A6BF8687B69009313000022FC
:1031F000802100F07BFA031E01D0012353E0FB681D
:103200005B8D9BB2FF2B11D9FB68FF221A85FB68EF
:103210001B8DDAB280235C040A23FB181988F86836
:1032200000230093230000F001FC12E0FB685B8D9B
:103230009AB2FB681A85FB681B8DDAB280239C0466
:103240000A23FB181988F86800230093230000F074
:10325000EDFBFB685B8D9BB2002B98D17A69396BD3
:10326000FB68180000F0C0FA031E01D001231AE029
:10327000FB681B682022DA61FB681B685A68FB68E0
:103280001B680B490A405A60FB684122202199546F
:10329000FB68422200219954FB6840220021995486
:1032A000002300E002231800BD4607B090BDC046D1
:1032B00000E800FE90B589B002AFF8600C00100085
:1032C00019000A23FB18221C1A800823FB18021C71
:1032D0001A80BB1D0A1C1A80FB6841229B5CDBB272
:1032E000202B00D010E1BB6A002B04D02C23FB184C
:1032F0001B88002B05D1FB68802292005A640123B1
:1033000003E1FB6840229B5C012B01D10223FCE01E
:10331000FB68402201219954FEF77CFB03007B618E
:1033200080231902F8687B6900931923012200F0B9
:10333000DDF9031E01D00123E7E0FB6841222221D1
:103340009954FB68422240219954FB6800225A6438
:10335000FB68BA6A5A62FB682C22BA1812885A852E
:10336000FB6800225A63BB1D1C880823FB181A88BF
:103370000A23FB181988F8687B6901933B6B00935B
:10338000230000F02FF9031E05D0FB684022002126
:1033900099540123B9E0FB685B8D9BB2FF2B11D9D7
:1033A000FB68FF221A85FB681B8DDAB280235C0460
:1033B0000A23FB181988F868564B0093230000F085
:1033C00035FB12E0FB685B8D9AB2FB681A85FB68DF
:1033D0001B8DDAB280239C040A23FB181988F86835
:1033E0004C4B0093230000F021FB3A6BF8687B699B
:1033F000009313000022042100F078F9031E01D08D
:10340000012382E0FB681B685A6AFB685B6AD2B2E0
:103410001A70FB685B6A5A1CFB685A62FB681B8D5A
:10342000013B9AB2FB681A85FB685B8D9BB2013B3E
:103430009AB2FB685A85FB685B8D9BB2002B3AD031
:10344000FB681B8D002B36D13A6BF8687B690093C3
:1034500013000022802100F049F9031E01D001234E
:1034600053E0FB685B8D9BB2FF2B11D9FB68FF22F9
:103470001A85FB681B8DDAB280235C040A23FB18D3
:103480001988F86800230093230000F0CFFA12E0B7
:10349000FB685B8D9AB2FB681A85FB681B8DDAB2FC
:1034A00080239C040A23FB181988F86800230093E2
:1034B000230000F0BBFAFB685B8D9BB2002B94D11C
:1034C0007A69396BFB68180000F08EF9031E01D091
:1034D00001231AE0FB681B682022DA61FB681B6885
:1034E0005A68FB681B680C490A405A60FB68412215
:1034F00020219954FB68422200219954FB68402204
:1035000000219954002300E002231800BD4607B0B3
:1035100090BDC0460024008000E800FEB0B586B033
:1035200002AFF8600C00100019000A257B19221C5C
:103530001A800823FB18021C1A80BB1D0A1C1A8063
:10354000BB1D1B88DAB280235C047B191988F868DC
:10355000234B0093230000F069FA7A6A396AFB680A
:10356000180000F002F9031E01D0012333E0BB1D57
:103570001B88012B07D10823FB181B88DAB2FB68D4
:103580001B689A6219E00823FB181B881B0A9BB270
:10359000DAB2FB681B689A627A6A396AFB681800BB
:1035A00000F0E3F8031E01D0012314E00823FB1808
:1035B0001B88DAB2FB681B689A623A6AF8687B6A11
:1035C000009313000022802100F090F8031E01D028
:1035D000012300E000231800BD4604B0B0BDC04682
:1035E00000200080B0B586B002AFF8600C0010007B
:1035F00019000A257B19221C1A800823FB18021CBB
:103600001A80BB1D0A1C1A80BB1D1B88DAB27B19ED
:103610001988F868234B0093002300F007FA7A6AB0
:10362000396AFB68180000F0A0F8031E01D00123DE
:1036300033E0BB1D1B88012B07D10823FB181B8817
:10364000DAB2FB681B689A6219E00823FB181B8832
:103650001B0A9BB2DAB2FB681B689A627A6A396A03
:10366000FB68180000F081F8031E01D0012314E06C
:103670000823FB181B88DAB2FB681B689A623A6A57
:10368000F8687B6A009313000022402100F02EF8B6
:10369000031E01D0012300E000231800BD4604B042
:1036A000B0BDC0460020008080B582B000AF786019
:1036B0007B681B689B6902221340022B03D17B6845
:1036C0001B6800229A627B681B689B690122134079
:1036D000012B07D07B681B689A697B681B680121F6
:1036E0000A439A61C046BD4602B080BD80B584B031
:1036F00000AFF860B9603B60FB1D1A7021E03B68C9
:1037000001331ED0FEF786F90200BB69D31A3A686E
:103710009A4202D33B68002B13D1FB685B6C2022DA
:103720001A43FB685A64FB68412220219954FB68C4
:10373000422200219954FB68402200219954012320
:103740000FE0FB681B689B69BA681340BA68D31A1C
:103750005A425341DBB21A00FB1D1B789A42CED06D
:1037600000231800BD4604B080BD80B584B000AF12
:10377000F860B9607A602BE07A68B968FB68180075
:1037800000F0DAF8031E01D0012329E0BB68013301
:103790001ED0FEF73FF902007B68D31ABA689A423E
:1037A00002D3BB68002B13D1FB685B6C20221A4349
:1037B000FB685A64FB68412220219954FB6842222D
:1037C00000219954FB68402200219954012307E00D
:1037D000FB681B689B6902221340022BCCD100239B
:1037E0001800BD4604B080BD80B584B000AFF8605D
:1037F000B9607A6028E07A68B968FB68180000F060
:103800009BF8031E01D0012326E0FEF703F9020016
:103810007B68D31ABA689A4202D3BB68002B13D1D3
:10382000FB685B6C20221A43FB685A64FB684122E8
:1038300020219954FB68422200219954FB684022C0
:1038400000219954012307E0FB681B689B69202233
:103850001340202BCFD100231800BD4604B080BDFB
:1038600080B584B000AFF860B9607A6055E07A68DE
:10387000B968FB68180000F05FF8031E01D001234F
:1038800053E0FB681B689B6920221340202B29D141
:10389000FB681B689B6904221340042B05D1FB685D
:1038A0001B8D002B01D000233FE0FB681B6820220A
:1038B000DA61FB681B685A68FB681B681D490A408F
:1038C0005A60FB6800225A64FB6841222021995407
:1038D000FB68422200219954FB6840220021995440
:1038E000012322E0FEF796F802007B68D31ABA683B
:1038F0009A4202D3BB68002B0FD1FB685B6C20227D
:103900001A43FB685A64FB68412220219954FB68E2
:10391000402200219954012307E0FB681B689B6942
:1039200004221340042BA2D100231800BD4604B08A
:1039300080BDC04600E800FE80B584B000AFF860EE
:10394000B9607A60FB681B689B6910221340102BDA
:1039500064D1FB681B685A6880239B041A4080234B
:103960009B049A422BD0FB681B685A68FB681B6853
:103970008021C9010A435A6021E0BB6801331ED08F
:10398000FEF748F802007B68D31ABA689A4202D35D
:10399000BB68002B13D1FB685B6C20221A43FB68C9
:1039A0005A64FB68412220219954FB68422200217D
:1039B0009954FB6840220021995401232FE0FB68B1
:1039C0001B689B6920221340202BD6D1FB681B6803
:1039D0001022DA61FB681B682022DA61FB6818009C
:1039E000FFF762FEFB681B685A68FB681B680E499C
:1039F0000A405A60FB685B6C04221A43FB685A64F5
:103A0000FB68412220219954FB68422200219954ED
:103A1000FB68402200219954012300E00023180094
:103A2000BD4604B080BDC04600E800FE90B585B03C
:103A300000AFF860080011007B600A243B19021CEB
:103A40001A8009203B180A1C1A70FB681B685B6807
:103A50003A6A510D8022D2000A400E490A43D243ED
:103A60001A4011003B191B889B059A0D3B181B78C7
:103A70001804FF231B0403401A437B681A433B6A64
:103A80001A43FB681B680A435A60C046BD4605B02E
:103A900090BDC046FF63FF0380B582B000AF786081
:103AA00039607B6841229B5CDBB2202B38D17B687C
:103AB00040229B5C012B01D1022332E07B68402233
:103AC000012199547B684122242199547B681B6809
:103AD0001A687B681B6801218A431A607B681B682F
:103AE0001A687B681B6811490A401A607B681B686A
:103AF00019687B681B683A680A431A607B681B6810
:103B00001A687B681B6801210A431A607B6841229E
:103B1000202199547B68402200219954002300E021
:103B200002231800BD4602B080BDC046FFEFFFFF74
:103B300080B584B000AF786039607B6841229B5CBF
:103B4000DBB2202B39D17B6840229B5C012B01D159
:103B5000022333E07B684022012199547B68412293
:103B6000242199547B681B681A687B681B680121B3
:103B70008A431A607B681B681B68FB60FB68114AFC
:103B80001340FB603B681B02FA681343FB607B68D1
:103B90001B68FA681A607B681B681A687B681B6878
:103BA00001210A431A607B684122202199547B68D5
:103BB000402200219954002300E002231800BD4652
:103BC00004B080BDFFF0FFFF80B588B000AF786023
:103BD0007B68002B01D1012305E37B681B68012270
:103BE000134000D18DE0C54B5B680C221340042BC1
:103BF0000ED0C24B5B680C221340082B16D1BF4B72
:103C00005A68C0235B021A4080235B029A420DD19E
:103C1000BA4B1A6880239B02134000D170E07B6886
:103C20005B68002B00D06BE00123DCE27B685B6803
:103C3000012B07D1B14B1A68B04B802149020A43CE
:103C40001A602FE07B685B68002B0CD1AB4B1A68C5
:103C5000AA4BAB490A401A60A84B1A68A74BA9495E
:103C60000A401A601EE07B685B68052B0ED1A34BEF
:103C70001A68A24B8021C9020A431A609F4B1A6836
:103C80009E4B802149020A431A600BE09B4B1A6845
:103C90009A4B9B490A401A60984B1A68974B99496E
:103CA0000A401A607B685B68002B14D0FDF7B2FEF7
:103CB0000300BB6108E0FDF7ADFE0200BB69D31A4B
:103CC000642B01D903238EE28C4B1A6880239B025C
:103CD0001340F0D015E0FDF79DFE0300BB6108E046
:103CE000FDF798FE0200BB69D31A642B01D90323A8
:103CF00079E2824B1A6880239B021340F0D100E0E6
:103D0000C0467B681B680222134000D16CE07B4BED
:103D10005B680C2213400ED0784B5B680C2213407A
:103D2000082B1FD1754B5A68C0235B021A408023B1
:103D30001B029A4216D1714B1B680222134005D018
:103D40007B68DB68012B01D001234CE26B4B1B68C5
:103D5000F822934319007B681B69DA00674B0A431A
:103D60001A6041E07B68DB68002B24D0634B1A6843
:103D7000624B01210A431A60FDF74CFE0300BB6150
:103D800008E0FDF747FE0200BB69D31A022B01D9F8
:103D9000032328E2594B1B6802221340F1D0574BF2
:103DA0001B68F822934319007B681B69DA00534BA8
:103DB0000A431A6018E0514B1A68504B01218A439C
:103DC0001A60FDF727FE0300BB6108E0FDF722FE45
:103DD0000200BB69D31A022B01D9032303E2474B2C
:103DE0001B6802221340F1D17B681B680822134034
:103DF00036D07B68DB69002B19D0404B5A6A3F4BA9
:103E000001210A435A62FDF705FE0300BB6108E089
:103E1000FDF700FE0200BB69D31A022B01D9032370
:103E2000E1E1364B5B6A02221340F1D018E0334BDC
:103E30005A6A324B01218A435A62FDF7EBFD0300B7
:103E4000BB6108E0FDF7E6FD0200BB69D31A022B57
:103E500001D90323C7E1294B5B6A02221340F1D148
:103E60007B681B680422134000D1B5E01F23FB18B8
:103E700000221A70214BDA6980235B05134011D1AF
:103E80001E4BDA691D4B802149050A43DA611B4B41
:103E9000DA6980235B051340FB60FB681F23FB1876
:103EA00001221A70184B1A6880235B0013401AD144
:103EB000154B1A68144B802149000A431A60FDF71C
:103EC000A9FD0300BB6108E0FDF7A4FD0200BB698A
:103ED000D31A642B01D9032385E10B4B1A68802385
:103EE0005B001340F0D07B689B68012B0ED1034B25
:103EF0001A6A024B01210A431A6235E0001002409F
:103F0000FFFFFEFFFFFFFBFF007000407B689B6828
:103F1000002B0CD1B64B1A6AB54B01218A431A62A9
:103F2000B34B1A6AB24B04218A431A621CE07B68C5
:103F30009B68052B0CD1AE4B1A6AAD4B04210A438A
:103F40001A62AB4B1A6AAA4B01210A431A620BE0B0
:103F5000A74B1A6AA64B01218A431A62A44B1A6A1C
:103F6000A34B04218A431A627B689B68002B14D000
:103F7000FDF750FD0300BB6109E0FDF74BFD0200BA
:103F8000BB69D31A9B4A934201D903232BE1984B77
:103F90001B6A02221340F0D013E0FDF73BFD030043
:103FA000BB6109E0FDF736FD0200BB69D31A914AF7
:103FB000934201D9032316E18D4B1B6A0222134061
:103FC000F0D11F23FB181B78012B05D1884BDA6930
:103FD000874B89490A40DA617B681B6810221340CD
:103FE00063D07B685B69012B2AD1814B5A6B804B74
:103FF00004210A435A637E4B5A6B7D4B01210A43CD
:104000005A63FDF707FD0300BB6108E0FDF702FD01
:104010000200BB69D31A022B01D90323E3E0744BDE
:104020005B6B02221340F1D0714B5B6BF822934320
:1040300019007B689B69DA006D4B0A435A6334E0D0
:104040007B685B69053311D1694B5A6B684B04215E
:104050008A435A63664B5B6BF822934319007B6873
:104060009B69DA00624B0A435A631EE0604B5A6B4D
:104070005F4B04210A435A635D4B5A6B5C4B012131
:104080008A435A63FDF7C6FC0300BB6108E0FDF7F5
:10409000C1FC0200BB69D31A022B01D90323A2E0A1
:1040A000534B5B6B02221340F1D17B681B6A002BE0
:1040B00000D197E04E4B5B680C221340082B00D1D7
:1040C0006BE07B681B6A022B4CD1494B1A68484B4A
:1040D0004A490A401A60FDF79DFC0300BB6108E0F5
:1040E000FDF798FC0200BB69D31A022B01D9032308
:1040F00079E03F4B1A6880239B041340F0D13C4B7E
:10410000DB6A0F22934319007B68DA6A384B0A4353
:10411000DA62374B5B683A4A134019007B689A6A47
:104120007B685B6A1A43324B0A435A60304B1A6809
:104130002F4B802149040A431A60FDF76BFC0300F2
:10414000BB6108E0FDF766FC0200BB69D31A022BD5
:1041500001D9032347E0264B1A6880239B041340B0
:10416000F0D03FE0224B1A68214B24490A401A60E4
:10417000FDF750FC0300BB6108E0FDF74BFC0200BB
:10418000BB69D31A022B01D903232CE0184B1A6800
:1041900080239B041340F0D124E07B681B6A012B31
:1041A00001D101231FE0124B5B687B61104BDB6A7E
:1041B0003B617A69C0235B021A407B685B6A9A4262
:1041C0000ED13B690F221A407B68DB6A9A4207D105
:1041D0007A69F0239B031A407B689B6A9A4201D05C
:1041E000012300E000231800BD4608B080BDC04692
:1041F0000010024088130000FFFFFFEFFFFFFFFEEB
:10420000FF7FC2FF80B584B000AF786039607B6803
:10421000002B01D10123B3E05B4B1B68012213404B
:104220003A689A4211D9584B1B68012293431900EE
:10423000554B3A680A431A60534B1B6801221340DE
:104240003A689A4201D001239AE07B681B680222F7
:10425000134015D07B681B680422134006D04B4BDB
:104260005A684A4BE021C9000A435A60474B5B68D1
:10427000F022934319007B689A68444B0A435A60C2
:104280007B681B680122134040D07B685B68012B70
:1042900007D13E4B1A6880239B02134014D101239F
:1042A0006EE07B685B68022B07D1384B1A6880236D
:1042B0009B04134008D1012362E0344B1B680222A7
:1042C000134001D101235BE0304B5B680322934331
:1042D00019007B685A682D4B0A435A60FDF79AFB18
:1042E0000300FB6009E0FDF795FB0200FB68D31AB1
:1042F000274A934201D9032342E0244B5B680C22F6
:104300001A407B685B689B009A42ECD11E4B1B688D
:10431000012213403A689A4211D21B4B1B680122BA
:1043200093431900184B3A680A431A60164B1B68EE
:10433000012213403A689A4201D0012320E07B68B1
:104340001B680422134009D0104B5B68114A1340CC
:1043500019007B68DA680D4B0A435A6000F020F8B8
:1043600001000A4B5B681B090F2213400A4AD35C09
:104370000A00DA40094B1A600020FDF705FB002314
:104380001800BD4604B080BD00200240001002406D
:1043900088130000FFF8FFFF98150108580100205E
:1043A00090B58FB000AF1423FB182C4A13CA13C367
:1043B00012681A603B1D2A4A13CA13C312681A6096
:1043C0000023FB620023BB6200237B6300237B622C
:1043D00000233B63234B5B68FB62FB6A0C221340A8
:1043E000042B02D0082B03D02FE01F4B3B632FE0A0
:1043F000FB6A9B0C0F2213401422BA18D35C7B6219
:10440000184BDB6A0F2213403A1DD35CBB62FA6A79
:10441000C0235B021A4080235B029A4209D1B96A29
:104420001148FBF779FE03001A007B6A53437B6354
:1044300008E0B96A0D48FBF76FFE03001A007B6ABB
:1044400053437B637B6B3B6302E0084B3B63C0469B
:104450003B6B1800BD460FB090BDC046F00A010886
:10446000000B0108001002400024F40000127A0042
:1044700080B500AF024B1B681800BD4680BDC0462A
:104480005801002080B500AFFFF7F2FF0100064B96
:104490005B681B0A07221340044AD35CD9400B0017
:1044A0001800BD4680BDC04600100240A815010896
:1044B00080B586B000AF786000233B610023FB60CD
:1044C0007B681A6880235B02134000D18FE01723BA
:1044D000FB1800221A705F4BDA6980235B051340DA
:1044E00011D15C4BDA695B4B802149050A43DA61E3
:1044F000584BDA6980235B051340BB60BB68172308
:10450000FB1801221A70544B1A6880235B00134079
:104510001AD1514B1A68504B802149000A431A6046
:10452000FDF778FA03003B6108E0FDF773FA02003B
:104530003B69D31A642B01D9032387E0464B1A68E1
:1045400080235B001340F0D0424B1A6AC0239B00CB
:104550001340FB60FB68002B34D07B685A68C02393
:104560009B001340FA689A422CD03A4B1B6A3B4A94
:104570001340FB60374B1A6A364B802149020A43CD
:104580001A62344B1A6A334B35490A401A62314B6E
:10459000FA681A62FB680122134013D0FDF73AFA59
:1045A00003003B6109E0FDF735FA02003B69D31ACD
:1045B0002C4A934201D9032348E0264B1B6A02226E
:1045C0001340F0D0234B1B6A244A134019007B6828
:1045D0005A68204B0A431A621723FB181B78012BD9
:1045E00005D11C4BDA691B4B1F490A40DA617B6815
:1045F0001B680122134009D0164B1B6B0322934307
:1046000019007B689A68134B0A431A637B681B681E
:104610002022134009D00F4B1B6B1022934319002B
:104620007B68DA680B4B0A431A637B681A6880233D
:104630009B02134009D0074B1B6B80229343190048
:104640007B681A69034B0A431A6300231800BD46AE
:1046500006B080BD0010024000700040FFFCFFFF6C
:10466000FFFFFEFF88130000FFFFFFEF80B582B061
:1046700000AF78607B68002B01D1012342E07B68AA
:104680003D229B5CDBB2002B07D17B683C220021E2
:1046900099547B68180002F0E9FA7B683D220221F8
:1046A00099547B681A687B6804331900100000F085
:1046B000B7F97B684622012199547B683E2201218B
:1046C00099547B683F22012199547B684022012143
:1046D00099547B684122012199547B68422201212F
:1046E00099547B684322012199547B68442201211B
:1046F00099547B684522012199547B683D22012110
:10470000995400231800BD4602B080BD80B584B026
:1047100000AF78607B683D229B5CDBB2012B01D04F
:10472000012335E07B683D22022199547B681B6898
:10473000DA687B681B6801210A43DA607B681B68C2
:10474000154A934209D07B681B68144A934204D0EF
:104750007B681B68124A934211D17B681B689B6877
:1047600007221340FB60FB68062B10D07B681B6898
:104770001A687B681B6801210A431A6007E07B689E
:104780001B681A687B681B6801210A431A600023B2
:104790001800BD4604B080BD002C0140000400405C
:1047A0000040014080B582B000AF78607B681B6834
:1047B0001B6902221340022B24D17B681B68DB6833
:1047C00002221340022B1DD17B681B680322524238
:1047D0001A617B6801221A777B681B689B69032238
:1047E000134004D07B68180000F002F907E07B68F2
:1047F000180000F0F5F87B68180000F001F97B68FC
:1048000000221A777B681B681B6904221340042B63
:1048100025D17B681B68DB6804221340042B1ED162
:104820007B681B68052252421A617B6802221A7754
:104830007B681B689A69C0239B00134004D07B6887
:10484000180000F0D5F807E07B68180000F0C8F801
:104850007B68180000F0D4F87B6800221A777B6828
:104860001B681B6908221340082B24D17B681B6836
:10487000DB6808221340082B1DD17B681B680922C6
:1048800052421A617B6804221A777B681B68DB69D5
:104890000322134004D07B68180000F0A9F807E059
:1048A0007B68180000F09CF87B68180000F0A8F8FE
:1048B0007B6800221A777B681B681B6910221340F3
:1048C000102B25D17B681B68DB6810221340102B4E
:1048D0001ED17B681B68112252421A617B68082234
:1048E0001A777B681B68DA69C0239B00134004D0E9
:1048F0007B68180000F07CF807E07B68180000F087
:104900006FF87B68180000F07BF87B6800221A774C
:104910007B681B681B6901221340012B0FD17B6848
:104920001B68DB6801221340012B08D17B681B68E0
:10493000022252421A617B68180000F049F87B6835
:104940001B681B6980221340802B0FD17B681B687A
:10495000DB6880221340802B08D17B681B68812292
:1049600052421A617B68180000F0D8F87B681B6817
:104970001B6940221340402B0FD17B681B68DB680A
:1049800040221340402B08D17B681B6841225242D1
:104990001A617B68180000F03BF87B681B681B6994
:1049A00020221340202B0FD17B681B68DB6820225C
:1049B0001340202B08D17B681B68212252421A61C8
:1049C0007B68180000F0A2F8C046BD4602B080BD6A
:1049D00080B582B000AF7860C046BD4602B080BDF1
:1049E00080B582B000AF7860C046BD4602B080BDE1
:1049F00080B582B000AF7860C046BD4602B080BDD1
:104A000080B582B000AF7860C046BD4602B080BDC0
:104A100080B582B000AF7860C046BD4602B080BDB0
:104A200080B584B000AF786039607B681B68FB603C
:104A30007B682F4A934203D07B682E4A934208D169
:104A4000FB6870229343FB603B685B68FA68134322
:104A5000FB607B68264A934213D07B68254A9342C9
:104A60000FD07B68244A93420BD07B68234A934241
:104A700007D07B68224A934203D07B68214A934245
:104A800008D1FB68204A1340FB603B68DB68FA688A
:104A90001343FB60FB68802293431A003B685B6909
:104AA0001343FB607B68FA681A603B689A687B680E
:104AB000DA623B681A687B689A627B680C4A9342A8
:104AC0000BD07B680D4A934207D07B680C4A934217
:104AD00003D07B680B4A934203D13B681A697B6819
:104AE0001A637B6801225A61C046BD4604B080BD8E
:104AF000002C014000040040002000400040014024
:104B00000044014000480140FFFCFFFF80B582B037
:104B100000AF7860C046BD4602B080BD80B582B0AF
:104B200000AF7860C046BD4602B080BD80B582B09F
:104B300000AF78607B68002B01D1012344E07B68E3
:104B40009B6F002B07D17B687422002199547B68EE
:104B5000180002F0CDF87B6824229A677B681B68F6
:104B60001A687B681B6801218A431A607B681800F9
:104B700000F0E8FB0300012B01D1012324E07B6856
:104B80005B6A002B03D07B68180000F031FD7B6866
:104B90001B685A687B681B680D490A405A607B682D
:104BA0001B689A687B681B6808218A439A607B6847
:104BB0001B681A687B681B6801210A431A607B68BE
:104BC000180000F0C9FD03001800BD4602B080BD0A
:104BD000FFF7FFFF80B582B000AF78607B68002BE5
:104BE00001D101232CE07B6824229A677B681B6833
:104BF0001A687B681B6801218A431A607B681B68FE
:104C000000221A607B681B6800225A607B681B6860
:104C100000229A607B68180002F046F97B688022C7
:104C2000002199507B6800229A677B680022DA672E
:104C30007B6800221A667B68742200219954002345
:104C40001800BD4602B080BD80B58AB002AFF860E2
:104C5000B9603B60BB1D1A80FB689B6F202B00D0A6
:104C600096E0BB68002B03D0BB1D1B88002B01D135
:104C700001238EE0FB689A6880235B019A4209D188
:104C8000FB681B69002B05D1BB680122134001D0D2
:104C900001237EE0FB6874229B5C012B01D102237F
:104CA00077E0FB68742201219954FB68802200217F
:104CB0009950FB6821229A67FCF7ACFE03007B61E8
:104CC000FB68BA1D502112885A52FB68BA1D522146
:104CD00012885A52FB689A6880235B019A4208D175
:104CE000FB681B69002B04D10023FB61BB68BB611F
:104CF00003E0BB68FB610023BB61FB6874220021F9
:104D000099542DE07A69F8683B68009313000022FB
:104D1000802100F06BFD031E01D0032339E0FB6905
:104D2000002B0BD1BB691A88FB681B68D205D20D1A
:104D300092B21A85BB690233BB6108E0FB691A783D
:104D4000FB681B6892B21A85FB690133FB61FB6843
:104D500052229B5A9BB2013B99B2FB685222995254
:104D6000FB6852229B5A9BB2002BCBD17A69F86820
:104D70003B68009313000022402100F037FD031E22
:104D800001D0032305E0FB6820229A67002300E09E
:104D900002231800BD4608B080BD000080B5AAB04F
:104DA00000AF78607B681B68DB69A422B9180B60D0
:104DB0007B681B681B68A02179180B607B681B68E7
:104DC0009B689C2179180B60BB181B68994A13409B
:104DD0009822B9180B60BB181B68002B16D1A423AE
:104DE000FB181B682022134010D0A023FB181B685F
:104DF000202213400AD07B685B6E002B00D174E246
:104E00007B685B6E7A68100098476EE29823FB1807
:104E10001B68002B00D113E19C23FB181B680122A7
:104E2000134006D1A023FB181B68834A134000D10E
:104E300006E1A423FB181B680122134012D0A02313
:104E4000FB181A6880235B0013400BD07B681B683B
:104E500001221A627B6880229B5801221A437B68D8
:104E600080215A50A423FB181B680222134011D042
:104E70009C23FB181B68012213400BD07B681B6826
:104E800002221A627B6880229B5804221A437B68A4
:104E900080215A50A423FB181B680422134011D010
:104EA0009C23FB181B68012213400BD07B681B68F6
:104EB00004221A627B6880229B5802221A437B6874
:104EC00080215A50A423FB181B680822134017D0D6
:104ED000A023FB181B682022134005D19C23FB183C
:104EE0001B68012213400BD07B681B6808221A62E2
:104EF0007B6880229B5808221A437B6880215A5085
:104F0000A423FB181A6880231B01134013D0A0238D
:104F1000FB181A688023DB0413400CD07B681B68E5
:104F2000802212011A627B6880229B5820221A4339
:104F30007B6880215A507B6880229B58002B00D1CF
:104F4000D5E1A423FB181B68202213400ED0A02318
:104F5000FB181B682022134008D07B685B6E002B77
:104F600004D07B685B6E7A68100098477B6880226B
:104F70009B589422BA1813607B681B689B68402278
:104F80001340402B05D09423FB181B6828221340A4
:104F900045D07B68180000F0E5FC7B681B689B68C7
:104FA00040221340402B35D1EFF310833B663B6E1C
:104FB00090203A18136001237B667B6E83F3108880
:104FC0007B681B689A687B681B6840218A439A60EB
:104FD0003B181B68BB66BB6E83F310887B681B6F36
:104FE000002B12D07B681B6F144A5A637B681B6FBF
:104FF0001800FDF7CBF8031E1AD07B681B6F5A6BA5
:105000007B681B6F1800904712E07B68180000F067
:1050100085F90DE07B68180000F080F908E07B68F6
:10502000180000F07BF97B688022002199505EE136
:10503000C0465CE10F080000200100041D5A000872
:105040007B681B6E012B00D027E1A423FB181B6893
:105050001022134000D120E1A023FB181B6810226E
:10506000134000D119E17B681B6810221A627B682B
:105070001B689B6840221340402B00D095E07B6862
:105080001B6F1B685A687E217B181A807B181B884F
:10509000002B00D12DE17B6858229B5A7E22BA1842
:1050A00012889A4200D324E17B687E22BA185A21E2
:1050B00012885A527B681B6F9B69202B66D0EFF3D6
:1050C00010833B633B6BBB6701237B637B6B83F389
:1050D00010887B681B681A687B681B6889490A40CE
:1050E0001A60BB6FBB63BB6B83F31088EFF3108355
:1050F000FB63FB6B7B6701233B643B6C83F3108892
:105100007B681B689A687B681B6801218A439A60E8
:105110007B6F7B647B6C83F31088EFF31083BB643D
:10512000BB6C3B670123FB64FB6C83F310887B68DB
:105130001B689A687B681B6840218A439A603B6FB2
:105140003B653B6D83F310887B682022DA677B68C0
:1051500000221A66EFF310837B657B6DFB660123EB
:10516000BB65BB6D83F310887B681B681A687B681E
:105170001B6810218A431A60FB6EFB65FB6D83F38D
:1051800010887B681B6F1800FCF7C8FF7B685822EB
:105190009A5A7B685A215B5A9BB2D31A9AB27B689F
:1051A0001100180000F0C2F8A3E07B685822995A59
:1051B0007B685A229B5A9AB28E23FB188A1A1A804D
:1051C0007B685A229B5A9BB2002B00D193E08E231E
:1051D000FB181B88002B00D18DE0EFF31083FB60E0
:1051E000FB6888203A18136001233B613B6983F315
:1051F00010887B681B681A687B681B6842490A40F4
:105200001A603B181B687B617B6983F31088EFF39E
:105210001083BB61BB6984203A1813600123FB61D2
:10522000FB6983F310887B681B689A687B681B683E
:1052300001218A439A603B181B683B623B6A83F3F7
:1052400010887B682022DA677B6800221A667B68F8
:1052500000225A66EFF310837B627B6A80203A1843
:1052600013600123BB62BB6A83F310887B681B68F1
:105270001A687B681B6810218A431A603B181B68F8
:10528000FB62FB6A83F310888E23FB181A887B6805
:105290001100180000F04AF82DE0A423FB181B6849
:1052A000802213400FD0A023FB181B6880221340DC
:1052B00009D07B689B6E002B1FD07B689B6E7A6841
:1052C0001000984719E0A423FB181B6840221340E4
:1052D00014D0A023FB181B68402213400ED07B681B
:1052E000180000F0B2FBC04608E0C04606E0C04629
:1052F00004E0C04602E0C04600E0C046BD462AB019
:1053000080BDC046FFFEFFFFDFFEFFFF80B582B01D
:1053100000AF7860C046BD4602B080BD80B582B0A7
:1053200000AF7860C046BD4602B080BD80B582B097
:1053300000AF78600A00BB1C1A80C046BD4602B0B0
:1053400080BD000080B588B000AF78601E23FB18D8
:1053500000221A707B689A687B681B691A437B6815
:105360005B691A437B68DB6913437B617B681B685D
:105370001B68954A134019007B681B687A690A43C9
:105380001A607B681B685B68904A134019007B6851
:10539000DA687B681B680A435A607B689B697B619B
:1053A0007B681B6A7A6913437B617B681B689B6817
:1053B000874A134019007B681B687A690A439A6020
:1053C0007B681B68834A934225D1834B1B6B032266
:1053D0001340012B0FD004D3022B11D0032B05D087
:1053E00013E01F23FB1800221A7036E01F23FB185E
:1053F00002221A7031E01F23FB1804221A702CE0DD
:105400001F23FB1808221A7027E01F23FB18102205
:105410001A70C04621E07B681B68704A934204D131
:105420001F23FB1800221A7017E07B681B686C4A68
:10543000934204D11F23FB1800221A700DE07B68F1
:105440001B68684A934204D11F23FB1800221A707C
:1054500003E01F23FB1810221A707B68DA6980238F
:105460001B029A425CD11F23FB181B78022B0DD024
:1054700002DC002B05D015E0042B0AD0082B0DD040
:1054800010E0FEF7FFFF0300BB6112E0564BBB616B
:105490000FE0FEF785FF0300BB610AE080231B02DB
:1054A000BB6106E00023BB611E23FB1801221A70BA
:1054B000C046BB69002B00D179E0BB695A007B680C
:1054C0005B685B08D2187B685B6819001000FAF70C
:1054D00023FE03009BB23B613B690F2B1BD93B6949
:1054E000424A934217D83B699AB20E203B180F21CB
:1054F0008A431A803B695B089BB20722134099B22A
:105500003B183A1812880A431A807B681B683A18BD
:105510001288DA604BE01E23FB1801221A7046E065
:105520001F23FB181B78022B0DD002DC002B05D0AB
:1055300015E0042B0AD0082B0DD010E0FEF7A2FFD7
:105540000300BB6112E0284BBB610FE0FEF728FFB0
:105550000300BB610AE080231B02BB6106E000235D
:10556000BB611E23FB1801221A70C046BB69002BC9
:105570001DD07B685B685A08BB69D2187B685B6882
:1055800019001000FAF7C8FD03009BB23B613B69AC
:105590000F2B08D93B69154A934204D87B681B68D6
:1055A0003A69DA6003E01E23FB1801221A707B6857
:1055B00000225A667B6800229A661E23FB181B781D
:1055C0001800BD4608B080BDF369FFEFFFCFFFFFB5
:1055D000FFF4FFFF0038014000100240004400408B
:1055E00000480040004C004000127A00FFFF00001D
:1055F00080B582B000AF78607B685B6A012213409F
:105600000BD07B681B685B684A4A134019007B68B3
:105610009A6A7B681B680A435A607B685B6A02224D
:1056200013400BD07B681B685B68434A134019002A
:105630007B68DA6A7B681B680A435A607B685B6A2E
:10564000042213400BD07B681B685B683B4A134005
:1056500019007B681A6B7B681B680A435A607B6879
:105660005B6A082213400BD07B681B685B68344A76
:10567000134019007B685A6B7B681B680A435A60A9
:105680007B685B6A102213400BD07B681B689B68A9
:105690002C4A134019007B689A6B7B681B680A438D
:1056A0009A607B685B6A202213400BD07B681B6882
:1056B0009B68254A134019007B68DA6B7B681B687E
:1056C0000A439A607B685B6A402213401DD07B6866
:1056D0001B685B681D4A134019007B681A6C7B6865
:1056E0001B680A435A607B681A6C80235B039A42EA
:1056F0000BD17B681B685B68154A134019007B68F7
:105700005A6C7B681B680A435A607B685B6A80221C
:1057100013400BD07B681B685B680E4A134019006E
:105720007B689A6C7B681B680A435A60C046BD461A
:1057300002B080BDFFFFFDFFFFFFFEFFFFFFFBFF8D
:10574000FF7FFFFFFFEFFFFFFFDFFFFFFFFFEFFF29
:10575000FFFF9FFFFFFFF7FF80B586B002AF7860C5
:105760007B68802200219950FCF754F90300FB600C
:105770007B681B681B6808221340082B0DD1FA6850
:10578000802399037868184B00931300002200F0DF
:105790002DF8031E01D0032322E07B681B681B68E1
:1057A00004221340042B0DD1FA688023D9037868B2
:1057B0000D4B00931300002200F018F8031E01D0D7
:1057C00003230DE07B6820229A677B682022DA673A
:1057D0007B6800221A667B6874220021995400239A
:1057E0001800BD4604B080BDFFFFFF0180B594B036
:1057F00000AFF860B9603B60FB1D1A709BE0BB6DA9
:10580000013300D197E0FCF705F902003B68D31A99
:10581000BA6D9A4202D3BB6D002B39D1EFF31083DE
:10582000BB62BB6A7B640123FB62FB6A83F3108863
:10583000FB681B681A68FB681B6849490A401A60C4
:105840007B6C3B633B6B83F31088EFF310837B63CC
:105850007B6B3B640123BB63BB6B83F31088FB68EA
:105860001B689A68FB681B6801218A439A603B6C3D
:10587000FB63FB6B83F31088FB6820229A67FB684D
:105880002022DA67FB68742200219954032363E025
:10589000FB681B681B68042213404CD0FB681B6824
:1058A000DA6980231B011A4080231B019A4242D1EE
:1058B000FB681B68802212011A62EFF310833B61C0
:1058C0003B69FB6401237B617B6983F31088FB6880
:1058D0001B681A68FB681B6821490A401A60FB6C48
:1058E000BB61BB6983F31088EFF31083FB61FB6935
:1058F000BB6401233B623B6A83F31088FB681B682F
:105900009A68FB681B6801218A439A60BB6C7B62C2
:105910007B6A83F31088FB6820229A67FB68202249
:10592000DA67FB68802220219950FB6874220021ED
:105930009954032310E0FB681B68DB69BA681340C5
:10594000BA68D31A5A425341DBB21A00FB1D1B78C6
:105950009A4200D153E700231800BD4614B080BD21
:105960005FFEFFFF80B58EB000AF7860EFF310836D
:105970007B617B697B630123BB61BB6983F3108817
:105980007B681B681A687B681B6823490A401A6099
:105990007B6BFB61FB6983F31088EFF310833B6241
:1059A0003B6A3B6301237B627B6A83F310887B68DD
:1059B0001B689A687B681B6801218A439A603B6B6D
:1059C000BB62BB6A83F310887B681B6E012B16D108
:1059D000EFF31083BB60BB68FB620123FB60FB68D5
:1059E00083F310887B681B681A687B681B6810212A
:1059F0008A431A60FB6A3B613B6983F310887B68CA
:105A00002022DA677B6800221A667B6800225A66C9
:105A1000C046BD460EB080BDDFFEFFFF80B584B03E
:105A200000AF78607B685B6AFB60FB685A220021EC
:105A30009952FB68522200219952FB681800FFF727
:105A40006DFCC046BD4604B080BD80B586B000AFD9
:105A50007860EFF31083BB60BB687B610123FB6060
:105A6000FB6883F310887B681B681A687B681B6877
:105A700040218A431A607B693B613B6983F310884C
:105A80007B6820229A677B6800229A667B681800F0
:105A9000FFF73CFCC046BD4606B080BD80B500AFF8
:105AA0001E4B00225A601D4B00229A601B4B9A68C5
:105AB0001A4B802109060A439A60C046174B9B681F
:105AC000002BFBDB154B9A68144B01210A439A60AB
:105AD000124B0022DA60114B00221A610F4A0F4B61
